:10000000BEC00000D7C00000D5C00000D3C00000B3
:10001000D1C00000CFC00000CDC00000CBC00000A8
:10002000C9C00000C7C00000E1C40000C3C0000098
:10003000C1C00000BFC00000BDC00000BBC00000C8
:10004000B9C00000B7C00000B5C00000B3C00000D8
:10005000B1C00000AFC00000ADC00000ABC00000E8
:10006000A9C00000A7C00000A5C00000A3C00000F8
:10007000A1C000009FC000009DC000009BC0000008
:1000800099C0000097C0000095C0000093C0000018
:1000900091C000008FC000008DC000008BC0000028
:1000A00089C0000087C0000085C000001201100157
:1000B000000000084123370001000102000109028D
:1000C0006500020100C032090400000001010000C7
:1000D00009240100010900010109040100020103D2
:1000E000000007240100014100062402010100066E
:1000F0002402020200092403010301020100092471
:10010000030204010101000905010240000500008D
:1001100005250101010905820240000500000525B1
:1001200001010304030904200353007500730070E8
:1001300000650063007400200044006500760069DB
:1001400000630065007300000032034C006500741A
:100150000027007300200047006500740020004C59
:100160000065006F006E0061007200640020004CAA
:10017000006F00610064006500640000000011244D
:100180001FBECFEFDAE0DEBFCDBF11E0A0E0B1E0EF
:10019000EEE7FFE002C005900D92AA32B107D9F751
:1001A00012E0AAE2B1E001C01D92AA33B107E1F763
:1001B00043D0E3C625CF289A5D98479A089528989A
:1001C0005D9A47980895089580E091E0C0D680FD3B
:1001D00002C021E801C020E295B1822F8170809594
:1001E0009160892385B99BB1822F8072809590623E
:1001F00089238BB988B120788F77282B28B9089567
:1002000084B7877F84BF88E10FB6F894809360003D
:10021000109260000FBE80E090E020E80FB6F894E6
:1002200020936100809361000FBE209A289A559A0E
:100230005D9A3F9A4798BDC30F931F93DF93CF9367
:1002400000D000D0CDB7DEB7DBDF28985D9A4798A5
:1002500078948E010F5F1F4F05C069817A818B8171
:100260009C8181D080E091E0B80104D68823A9F771
:1002700080E091E03DD6E9D5F5CFDA01923049F042
:10028000933061F09130F9F4ECEAF0E022E130E0F3
:100290001EC0EEEBF0E025E630E019C0813049F0F9
:1002A000813018F0823079F408C0E3E2F1E0849103
:1002B00007C0E7E2F1E0849103C0E9E4F1E0849152
:1002C000282F30E004C0E0E0F0E020E030E0ED93E3
:1002D000FC93C901089511D3F89488E893E120E9CB
:1002E00031E0F9013197F1F70197D9F787E797E7FF
:1002F00090930108809300082CE088E190E00FB60D
:10030000F894A895809360000FBE20936000FFCF03
:10031000CF93DF9313B880E289B916B880912F018B
:100320008D37C9F08E37E1F4809132018630C1F407
:10033000809133018130A1F4C1E1D1E080E091E00E
:10034000BE01E6D5249681E0C932D807B9F780E02E
:1003500091E0B0D505C0809134018E3109F4BBDF46
:10036000DF91CF9108959B01AC01862F8F70682F8C
:1003700070E0CB01877F892B09F485C062FF83C0C1
:1003800080912C01823051F480912A0190912B01AF
:10039000813491051CF083E080932C016430710559
:1003A00049F0643071050CF46EC0683071050CF0D2
:1003B0006AC04AC080912C01813029F1813020F03F
:1003C000823009F060C02BC010922B0110922A01DC
:1003D000303F09F058C0842F8E57823040F480910E
:1003E0000C015817A1F05F3709F04DC010C0809183
:1003F0000E01481709F047C080910F01851709F0D9
:1004000042C081E005C080911001831721F482E091
:1004100080932C0104C083E080932C010895809187
:100420002A0190912B01FC01EE0FFF1FEE0FFF1F21
:10043000E35DFE4F20833183428353830196909383
:100440002B0180932A01089580912A0190912B011C
:10045000FC01EE0FFF1FEE0FFF1FE35DFE4F208339
:10046000318342835383019690932B0180932A0119
:1004700080912C01823029F44BDF13B880E289B9D6
:1004800016B810922C0108959C01409138025091A9
:1004900039024617570718F4F90190E045C0611575
:1004A000710511F0AB01F8CF8091E8008E77809351
:1004B000E80040E050E0F0CF80913102882309F459
:1004C00045C0853009F444C08091E80083FF02C034
:1004D00081E008958091E80082FD32C08091E800BB
:1004E00080FF22C08091F3009091F200782F60E0AD
:1004F000292F30E0262B372B07C081918093F10004
:10050000415050402F5F3F4F4115510519F02830A1
:10051000310598F390E02830310509F491E080919D
:10052000E8008E778093E8004115510529F699235C
:1005300019F606C080913102882341F0853041F0E0
:100540008091E80082FFF6CF80E0089582E0089570
:1005500083E008959C01409138025091390246177A
:10056000570718F4F90190E046C06115710511F0C4
:10057000AB01F8CF8091E8008E778093E80040E0EF
:1005800050E0F0CF80913102882309F447C08530D4
:1005900009F446C08091E80083FF02C081E008951D
:1005A0008091E80082FD34C08091E80080FF23C084
:1005B0008091F3009091F200782F60E0292F30E0D5
:1005C000262B372B08C084918093F100319641503F
:1005D00050402F5F3F4F4115510519F0283031052C
:1005E00090F390E02830310509F491E08091E80023
:1005F0008E778093E8004115510521F6992309F083
:10060000C1CF06C080913102882341F0853041F08E
:100610008091E80082FFF6CF80E0089582E008959F
:1006200083E00895BF92CF92DF92EF92FF920F93F3
:100630001F93CF93DF93182F092F7B016A012BD1D2
:10064000B82E8823B1F5812F902F9C01E901C114A8
:10065000D10439F0F60180819181E81AF90AC80FB6
:10066000D91F00E010E022C08091E80085FD16C08F
:100670008091E8008B778093E800E7D3C114D10420
:1006800049F0F60180819181800F911F91838083D1
:1006900085E010C000D1882349F00CC08091F100A2
:1006A00089930894E108F1080F5F1F4FE114F104EA
:1006B000D9F68B2DDF91CF911F910F91FF90EF9085
:1006C000DF90CF90BF900895BF92CF92DF92EF92CC
:1006D000FF920F931F93CF93DF93182F092F7B0166
:1006E0006A01D9D0B82E8823B1F5812F902F9C01B3
:1006F000E901C114D10439F0F60180819181E81A31
:10070000F90AC80FD91F00E010E022C08091E8006C
:1007100085FD16C08091E8008E778093E80095D320
:10072000C114D10449F0F60180819181800F911F9D
:100730009183808385E010C0AED0882349F00CC03F
:1007400089918093F1000894E108F1080F5F1F4F31
:10075000E114F104D9F68B2DDF91CF911F910F9108
:10076000FF90EF90DF90CF90BF900895382F282F03
:100770002EC0822F8F708093E900231721F4762FEB
:10078000942F50E006C07091EC009091ED005091D4
:10079000F00091FF1BC08091EB008E7F8093EB00F7
:1007A0008091ED008D7F8093ED008091EB00816062
:1007B0008093EB007093EC009093ED005093F00069
:1007C0008091EE0087FD02C080E008952F5F273002
:1007D00080F23F703093E90081E008950F931F93FA
:1007E000CF93DF93062FEC0110E02AC09881992364
:1007F00029F16B81E981FA812C81892F8F708730F3
:1008000018F5223010F452E001C056E040E028E034
:1008100030E003C04F5F220F331F2E173F07D0F386
:100820006295660F660F607C991F9927991F692B47
:100830004295407F452B9ADF882331F01F5F259634
:100840001017A0F281E001C080E0DF91CF911F91ED
:100850000F9108958091320288239CF404C0809106
:1008600031028823B9F08091E80082FFF8CF8091AF
:10087000E8008B778093E800089580913102882307
:1008800049F08091E80080FFF8CF8091E8008E77F2
:100890008093E80008954091E4005091E50024E63B
:1008A0008091EC0080FF24C08091E80080FD1EC094
:1008B00080913102882311F482E00895853011F48B
:1008C00083E008958091EB0085FF02C081E00895E8
:1008D0008091E4009091E5008417950709F32223A5
:1008E00011F484E008952150AC01DACF80E008953E
:1008F0008091E80082FFDCCFF9CF6BD072D0E0EEC0
:10090000F0E0808181608083A8EDB0E08C918F77EA
:100910008C9319BCE7EDF0E080818E7F80838C9111
:100920008F7E8C93109230020895EF92FF920F9376
:100930001F934FD056D008ED10E0F80180818F77DB
:10094000808380818068808380818F7D808319BCD3
:100950001092310210922D0210922F0210922E024C
:1009600080EEE82EF12CF70180818B7F8083F801E7
:1009700080818160808380E060E042E0F7DEE1EE2C
:10098000F0E080818E7F8083E2EEF0E08081816004
:100990008083808188608083F70180818E7F80835F
:1009A000F8018081806180831F910F91FF90EF900B
:1009B0000895E8EDF0E080818F7E8083E7EDF0E040
:1009C00080818160808384E082BF81E080933002F7
:1009D000ACCFE8EDF0E080818E7F80831092E20062
:1009E00008951092DA001092E10008951F920F927C
:1009F0000FB60F9211242F933F934F935F936F93F2
:100A00007F938F939F93AF93BF93EF93FF938091C7
:100A1000E10082FF0AC08091E20082FF06C080915F
:100A2000E1008B7F8093E1000FD28091DA0080FF9C
:100A30001DC08091D80080FF19C08091DA008E7FA0
:100A40008093DA008091D90080FF0CC080E189BDDD
:100A500082E189BD09B400FEFDCF81E080933102BF
:100A6000AADB04C019BC10923102A9DB8091E1001D
:100A700080FF18C08091E20080FF14C08091E200E6
:100A80008E7F8093E2008091E20080618093E2009B
:100A90008091D80080628093D80019BC85E0809353
:100AA0003102D2D18091E10084FF2FC08091E20019
:100AB00084FF2BC080E189BD82E189BD09B400FEBD
:100AC000FDCF8091D8008F7D8093D8008091E10088
:100AD0008F7E8093E1008091E2008F7E8093E20020
:100AE0008091E20081608093E20080912D02882352
:100AF00011F084E007C08091E30087FD02C081E02F
:100B000001C083E0809331029FD18091E10083FF97
:100B100022C08091E20083FF1EC08091E100877FA8
:100B20008093E10082E08093310210922D02809147
:100B3000E1008E7F8093E1008091E2008E7F8093C0
:100B4000E2008091E20080618093E20080E060E05A
:100B500042E00CDE79D1FF91EF91BF91AF919F916F
:100B60008F917F916F915F914F913F912F910F9056
:100B70000FBE0F901F9018951F93DF93CF93CDB7A3
:100B8000DEB7AC970FB6F894DEBF0FBECDBFE2E381
:100B9000F2E08091F100819322E0EA33F207C9F795
:100BA00012DB8091E80083FF37C1809132023091DF
:100BB0003302353009F487C0363040F43130C9F1A2
:100BC000313070F0333009F027C133C0383009F4C8
:100BD000F5C0393009F404C1363009F01DC196C0A2
:100BE000803821F0823809F017C108C090912E0298
:100BF00080912F02882399F0926011C08091360273
:100C00008F708093E9008091EB0090E025E096954D
:100C100087952A95E1F7982F91701092E9008091BD
:100C2000E800877F8093E8009093F1001092F10034
:100C3000D0C0882319F0823009F0EEC090E08F71A7
:100C40009070009721F0029709F0E6C00CC08091E7
:100C50003402813009F0E0C010922F02333069F580
:100C600080932F022AC080913402882331F520918D
:100C700036022F7009F4D0C02093E9008091EB0078
:100C800080FF1BC0333021F48091EB00806213C0E1
:100C90008091EB0080618093EB0081E090E002C0E6
:100CA000880F991F2A95E2F78093EA001092EA00D4
:100CB0008091EB0088608093EB001092E9008091B6
:100CC000E800877F89C0882309F0A6C0109134020C
:100CD0001F778091E3008078812B8093E3008091DF
:100CE000E800877F8093E800B5DD8091E80080FF11
:100CF000FCCF8091E30080688093E300112311F41E
:100D000082E001C083E08093310286C08058823047
:100D100008F082C0809134029091350223E08C3D2E
:100D2000920709F033C083E08C838AE28B837FB71C
:100D3000F894DE0115966EE040E050E011E2E62FF7
:100D4000F0E010935700849140FF03C082958F70AC
:100D50006F5F8F70282F30E08A3018F0C901C79676
:100D600002C0C901C0968D939D934F5F5F4F443180
:100D7000510529F77FBF8091E800877F8093E800C5
:100D8000CE0103966AE270E07FDB12C0609136020A
:100D9000AE014F5F5F4F71DABC01009709F43CC0B0
:100DA0008091E800877F8093E80089819A81D2DB77
:100DB0008091E8008B778093E8002EC0803861F541
:100DC0008091E800877F8093E80080912D028093D6
:100DD000F1008091E8008E778093E8003BDD1CC035
:100DE0008823D1F4909134029230B0F48091E800DD
:100DF000877F8093E80090932D022CDD80912D0257
:100E0000882331F48091E30087FD02C081E001C0B6
:100E100084E080933102D8D98091E80083FF0AC032
:100E20008091E800877F8093E8008091EB008062EA
:100E30008093EB00AC960FB6F894DEBF0FBECDBF2B
:100E4000CF91DF911F91089508951F9380913102F2
:100E5000882371F01091E9008091EC001092E90074
:100E60008091E80083FF01C087DE1F701093E900C6
:100E70001F910895FC01809131028430C9F486816C
:100E80008F708093E9008091E80085FF11C0CB014D
:100E900064E070E040E050E0C5DB8091E80085FD53
:100EA00005C08091E8008B778093E80081E0089589
:100EB00080E00895FC0180913102843011F082E0DD
:100EC000089581818F708093E9004091F300209113
:100ED000F200942F80E030E0822B932B892B11F4C9
:100EE00080E008958091E8008E778093E800D3CC6D
:100EF000FC0180913102843051F481818F708093A4
:100F0000E9008091E80080FF02C0CF01D3CF0895AF
:100F1000FC0180913102843011F092E016C0818191
:100F20008F708093E900CB0164E070E040E050E016
:100F3000CBDB982F882349F48091E80085FD05C01C
:100F40008091E8008E778093E800892F0895CF93F1
:100F5000DF93EC011B8682E08C838987CE010196AA
:100F600061E03CDC882331F0CE01069661E036DC9E
:0E0F7000811181E0DF91CF910895F894FFCFB9
:100F7E000182400000010140000001000A0A7D23A9
:100F8E004104F07E7F0406027D0423410104020128
:0A0F9E0002040000010621F7000024
:00000001FF
