:10000000BEC00000D7C00000D5C00000D3C00000B3
:10001000D1C00000CFC00000CDC00000CBC00000A8
:10002000C9C00000C7C00000C3C50000C3C00000B5
:10003000C1C00000BFC00000BDC00000BBC00000C8
:10004000B9C00000B7C00000B5C00000B3C00000D8
:10005000B1C00000AFC00000ADC00000ABC00000E8
:10006000A9C00000A7C00000A5C00000A3C00000F8
:10007000A1C000009FC000009DC000009BC0000008
:1000800099C0000097C0000095C0000093C0000018
:1000900091C000008FC000008DC000008BC0000028
:1000A00089C0000087C0000085C000001201100157
:1000B000000000084123370001000102000109028D
:1000C0006500020100C032090400000001010000C7
:1000D00009240100010900010109040100020103D2
:1000E000000007240100014100062402010100066E
:1000F0002402020200092403010301020100092471
:10010000030204010101000905010240000500008D
:1001100005250101010905820240000500000525B1
:1001200001010304030904200353007500730070E8
:1001300000650063007400200044006500760069DB
:1001400000630065007300000032034C006500741A
:100150000027007300200047006500740020004C59
:100160000065006F006E0061007200640020004CAA
:10017000006F00610064006500640000000011244D
:100180001FBECFEFDAE0DEBFCDBF11E0A0E0B1E0EF
:10019000E2E4F1E102C005900D92AA32B107D9F76D
:1001A00011E0AAE2B1E001C01D92AB3CB107E1F75A
:1001B0001ED0C5C725CF08950895089580E091E029
:1001C000A8C784B7877F84BF88E10FB6F89480936F
:1001D0006000109260000FBE80E090E020E80FB653
:1001E000F89420936100809361000FBEC4C40F9304
:1001F0001F93DF93CF9300D000D0CDB7DEB7E1DF00
:1002000078948E010F5F1F4F0FC089818F70282F48
:1002100030E0C901877F892B39F022FF05C0698151
:100220007A818B819C81D8D080E091E0B80104D79D
:10023000882359F780E091E03DD7E9D6F5CFDA0180
:10024000923049F0933061F09130F9F4ECEAF0E04B
:1002500022E130E01EC0EEEBF0E025E630E019C010
:10026000813049F0813018F0823079F408C0E3E23F
:10027000F1E0849107C0E7E2F1E0849103C0E9E492
:10028000F1E08491282F30E004C0E0E0F0E020E0CD
:1002900030E0ED93FC93C901089511D4F89488E8F7
:1002A00093E120E931E0F9013197F1F70197D9F7AE
:1002B00087E797E790930108809300082CE088E196
:1002C00090E00FB6F894A895809360000FBE20933D
:1002D0006000FFCFCF93DF938091B0018E3731F074
:1002E0008F3709F476C08D37F9F419C08091B301C6
:1002F000863009F06EC08091B401813009F069C088
:10030000C1E1D1E080E091E0BE01E4D6249681E035
:10031000C932D807B9F780E091E0AED65AC08091D3
:10032000B5018E3109F4B9DF10922C0120E047C0ED
:1003300080912C01E82FF0E0ED01CC0FDD1FCC0FF8
:10034000DD1FC255DE4F9981E35DFE4F90838F5FC5
:1003500080932C0188818F70853081F188818F7026
:100360008F3061F180912C01E82FF0E0AA0FBB1FC4
:10037000AA0FBB1FA055BE4F9C91E35DFE4F90831B
:100380008F5F80932C0188818F708630B9F08881CF
:100390008F708C3099F088818F708D3079F08881E2
:1003A0008F70823059F080912C01E82FF0E09B8112
:1003B000E35DFE4F90838F5F80932C012F5FA22F10
:1003C000B0E080912A0190912B01A817B9070CF495
:1003D000AFCFDF91CF910895CF93DF939B01AC0115
:1003E000A62FAF706A2F70E0CB01877F892B09F4AD
:1003F0002AC1A2FF28C18091AD01823051F48091C1
:100400002A0190912B01813891051CF083E08093A3
:10041000AD016430710549F0643071050CF413C10D
:10042000683071050CF00FC1DCC08091AD018130E6
:10043000E9F1813030F0823021F1833009F003C1DD
:10044000A8C010922B0110922A01303F09F0FBC086
:10045000842F8E57823040F480910C01581751F14F
:100460005F3709F0F0C026C080910E01481709F0EF
:10047000EAC080910F01851709F0E5C081E0809303
:10048000AD0180912A0190912B01FC01EE0FFF1F1D
:10049000EE0FFF1FE255FE4F2083318342835383CB
:1004A000019690932B0180932A01CDC08091100179
:1004B000831711F482E0E3CF83E08093AD01809154
:1004C0002A0190912B01FC01EE0FFF1FEE0FFF1F81
:1004D000E255FE4F208331834283538301969093EC
:1004E0002B0180932A0110922C0120E047C08091BB
:1004F0002C01E82FF0E0ED01CC0FDD1FCC0FDD1F4C
:10050000C255DE4F9981E35DFE4F90838F5F8093EC
:100510002C0188818F70853081F188818F708F30B8
:1005200061F180912C01E82FF0E0AA0FBB1FAA0F08
:10053000BB1FA055BE4F9C91E35DFE4F90838F5F24
:1005400080932C0188818F708630B9F088818F70FC
:100550008C3099F088818F708D3079F088818F7020
:10056000823059F080912C01E82FF0E09B81E35D0F
:10057000FE4F90838F5F80932C012F5FA22FB0E0FE
:1005800080912A0190912B01A817B9070CF4AFCFE5
:100590005AC080912C0190E08D3791051CF4109287
:1005A0002C014FC080912C01E82FF0E0E35DFE4F5D
:1005B00030838F5F80932C0180912C01E82FF0E035
:1005C000E35DFE4F40838F5F80932C0180912C016F
:1005D000E82FF0E0E35DFE4F50838F5F80932C01A6
:1005E00032C080912A0190912B01FC01EE0FFF1F78
:1005F000EE0FFF1FE255FE4F20833183428353836A
:10060000019690932B0180932A018091AD01823055
:1006100011F460DE16C080912C01E82FF0E0E35D5C
:10062000FE4F30838F5F80932C01A53051F0809175
:100630002C01E82FF0E0E35DFE4F40838F5F809355
:100640002C011092AD01DF91CF9108959C01409152
:10065000C9015091CA014617570718F4F90190E0F3
:1006600045C06115710511F0AB01F8CF8091E8002C
:100670008E778093E80040E050E0F0CF8091C20197
:10068000882309F445C0853009F444C08091E8000E
:1006900083FF02C081E008958091E80082FD32C0AE
:1006A0008091E80080FF22C08091F3009091F200D9
:1006B000782F60E0292F30E0262B372B07C081915F
:1006C0008093F100415050402F5F3F4F411551053D
:1006D00019F02830310598F390E02830310509F4FD
:1006E00091E08091E8008E778093E80041155105F4
:1006F00029F6992319F606C08091C201882341F09A
:10070000853041F08091E80082FFF6CF80E00895C7
:1007100082E0089583E008959C014091C9015091C1
:10072000CA014617570718F4F90190E046C0611551
:10073000710511F0AB01F8CF8091E8008E778093BE
:10074000E80040E050E0F0CF8091C201882309F436
:1007500047C0853009F446C08091E80083FF02C09D
:1007600081E008958091E80082FD34C08091E80026
:1007700080FF23C08091F3009091F200782F60E019
:10078000292F30E0262B372B08C084918093F1006D
:100790003196415050402F5F3F4F4115510519F0A0
:1007A0002830310590F390E02830310509F491E0CC
:1007B0008091E8008E778093E8004115510521F67D
:1007C000992309F0C1CF06C08091C201882341F06E
:1007D000853041F08091E80082FFF6CF80E00895F7
:1007E00082E0089583E00895BF92CF92DF92EF9266
:1007F000FF920F931F93CF93DF93182F092F7B0145
:100800006A012BD1B82E8823B1F5812F902F9C013E
:10081000E901C114D10439F0F60180819181E81A0F
:10082000F90AC80FD91F00E010E022C08091E8004B
:1008300085FD16C08091E8008B778093E800E7D3B0
:10084000C114D10449F0F60180819181800F911F7C
:100850009183808385E010C000D1882349F00CC0CB
:100860008091F10089930894E108F1080F5F1F4F10
:10087000E114F104D9F68B2DDF91CF911F910F91E7
:10088000FF90EF90DF90CF90BF900895BF92CF92EE
:10089000DF92EF92FF920F931F93CF93DF93182F66
:1008A000092F7B016A01D9D0B82E8823B1F5812F99
:1008B000902F9C01E901C114D10439F0F601808127
:1008C0009181E81AF90AC80FD91F00E010E022C090
:1008D0008091E80085FD16C08091E8008E778093B6
:1008E000E80095D3C114D10449F0F60180819181CB
:1008F000800F911F9183808385E010C0AED0882344
:1009000049F00CC089918093F1000894E108F10846
:100910000F5F1F4FE114F104D9F68B2DDF91CF91BA
:100920001F910F91FF90EF90DF90CF90BF900895AF
:10093000382F282F2EC0822F8F708093E900231725
:1009400021F4762F942F50E006C07091EC00909126
:10095000ED005091F00091FF1BC08091EB008E7F65
:100960008093EB008091ED008D7F8093ED0080916E
:10097000EB0081608093EB007093EC009093ED00AE
:100980005093F0008091EE0087FD02C080E0089552
:100990002F5F273080F23F703093E90081E00895A7
:1009A0000F931F93CF93DF93062FEC0110E02AC023
:1009B0009881992329F16B81E981FA812C81892F12
:1009C0008F70873018F5223010F452E001C056E0E5
:1009D00040E028E030E003C04F5F220F331F2E17A6
:1009E0003F07D0F36295660F660F607C991F9927C9
:1009F000991F692B4295407F452B9ADF882331F060
:100A00001F5F25961017A0F281E001C080E0DF9102
:100A1000CF911F910F9108958091C30188239CF479
:100A200004C08091C2018823B9F08091E80082FF60
:100A3000F8CF8091E8008B778093E800089580914B
:100A4000C201882349F08091E80080FFF8CF8091AF
:100A5000E8008E778093E80008954091E40050917B
:100A6000E50024E68091EC0080FF24C08091E8003E
:100A700080FD1EC08091C201882311F482E0089598
:100A8000853011F483E008958091EB0085FF02C06A
:100A900081E008958091E4009091E5008417950726
:100AA00009F3222311F484E008952150AC01DACF38
:100AB00080E008958091E80082FFDCCFF9CF6BD011
:100AC00072D0E0EEF0E0808181608083A8EDB0E03C
:100AD0008C918F778C9319BCE7EDF0E080818E7F4D
:100AE00080838C918F7E8C931092C1010895EF9238
:100AF000FF920F931F934FD056D008ED10E0F801EE
:100B000080818F77808380818068808380818F7DE2
:100B1000808319BC1092C2011092BE011092C001D4
:100B20001092BF0180EEE82EF12CF70180818B7FBF
:100B30008083F80180818160808380E060E042E012
:100B4000F7DEE1EEF0E080818E7F8083E2EEF0E080
:100B5000808181608083808188608083F7018081CB
:100B60008E7F8083F8018081806180831F910F9147
:100B7000FF90EF900895E8EDF0E080818F7E808314
:100B8000E7EDF0E080818160808384E082BF81E0D6
:100B90008093C101ACCFE8EDF0E080818E7F80834F
:100BA0001092E20008951092DA001092E100089588
:100BB0001F920F920FB60F9211242F933F934F93D2
:100BC0005F936F937F938F939F93AF93BF93EF93B5
:100BD000FF938091E10082FF0AC08091E20082FFD2
:100BE00006C08091E1008B7F8093E1000FD280915D
:100BF000DA0080FF1DC08091D80080FF19C080916D
:100C0000DA008E7F8093DA008091D90080FF0CC0DB
:100C100080E189BD82E189BD09B400FEFDCF81E09C
:100C20008093C201C8DA04C019BC1092C201C4DAB0
:100C30008091E10080FF18C08091E20080FF14C025
:100C40008091E2008E7F8093E2008091E2008061DB
:100C50008093E2008091D80080628093D80019BC14
:100C600085E08093C201D2D18091E10084FF2FC042
:100C70008091E20084FF2BC080E189BD82E189BDC3
:100C800009B400FEFDCF8091D8008F7D8093D800FD
:100C90008091E1008F7E8093E1008091E2008F7E61
:100CA0008093E2008091E20081608093E200809175
:100CB000BE01882311F084E007C08091E30087FD26
:100CC00002C081E001C083E08093C2019FD1809186
:100CD000E10083FF22C08091E20083FF1EC080916B
:100CE000E100877F8093E10082E08093C20110924F
:100CF000BE018091E1008E7F8093E1008091E2004F
:100D00008E7F8093E2008091E20080618093E20018
:100D100080E060E042E00CDE79D1FF91EF91BF917D
:100D2000AF919F918F917F916F915F914F913F9183
:100D30002F910F900FBE0F901F9018951F93DF9368
:100D4000CF93CDB7DEB7AC970FB6F894DEBF0FBE2A
:100D5000CDBFE3ECF1E08091F100819321E0EB3C29
:100D6000F207C9F72ADA8091E80083FF37C1809142
:100D7000C3013091C401353009F487C0363040F4E6
:100D80003130C9F1313070F0333009F027C133C050
:100D9000383009F4F5C0393009F404C1363009F0AF
:100DA0001DC196C0803821F0823809F017C108C0F3
:100DB0009091BF018091C001882399F0926011C089
:100DC0008091C7018F708093E9008091EB0090E0E3
:100DD00025E0969587952A95E1F7982F91701092C6
:100DE000E9008091E800877F8093E8009093F1000C
:100DF0001092F100D0C0882319F0823009F0EEC0C3
:100E000090E08F719070009721F0029709F0E6C092
:100E10000CC08091C501813009F0E0C01092C00182
:100E2000333069F58093C0012AC08091C5018823C1
:100E300031F52091C7012F7009F4D0C02093E9004B
:100E40008091EB0080FF1BC0333021F48091EB00D8
:100E5000806213C08091EB0080618093EB0081E0A1
:100E600090E002C0880F991F2A95E2F78093EA006C
:100E70001092EA008091EB0088608093EB00109262
:100E8000E9008091E800877F89C0882309F0A6C027
:100E90001091C5011F778091E3008078812B8093AA
:100EA000E3008091E800877F8093E800B5DD8091C2
:100EB000E80080FFFCCF8091E30080688093E3002E
:100EC000112311F482E001C083E08093C20186C047
:100ED0008058823008F082C08091C5019091C6018F
:100EE00023E08C3D920709F033C083E08C838AE2D3
:100EF0008B837FB7F894DE0115966EE040E050E0FA
:100F000011E2E62FF0E010935700849140FF03C0F8
:100F100082958F706F5F8F70282F30E08A3018F0C5
:100F2000C901C79602C0C901C0968D939D934F5FBA
:100F30005F4F4431510529F77FBF8091E800877FDB
:100F40008093E800CE0103966AE270E07FDB12C076
:100F50006091C701AE014F5F5F4F71D9BC0100972F
:100F600009F43CC08091E800877F8093E800898184
:100F70009A81D2DB8091E8008B778093E8002EC0C5
:100F8000803861F58091E800877F8093E800809148
:100F9000BE018093F1008091E8008E778093E80095
:100FA0003BDD1CC08823D1F49091C5019230B0F490
:100FB0008091E800877F8093E8009093BE012CDD4C
:100FC0008091BE01882331F48091E30087FD02C047
:100FD00081E001C084E08093C201F0D88091E800F4
:100FE00083FF0AC08091E800877F8093E8008091AA
:100FF000EB0080628093EB00AC960FB6F894DEBFF6
:101000000FBECDBFCF91DF911F91089508951F931B
:101010008091C201882371F01091E9008091EC0069
:101020001092E9008091E80083FF01C087DE1F7005
:101030001093E9001F910895FC018091C201843052
:10104000C9F486818F708093E9008091E80085FF64
:1010500011C0CB0164E070E040E050E0C5DB80915E
:10106000E80085FD05C08091E8008B778093E8005B
:1010700081E0089580E00895FC018091C2018430F0
:1010800011F082E0089581818F708093E900409192
:10109000F3002091F200942F80E030E0822B932B1C
:1010A000892B11F480E008958091E8008E77809379
:1010B000E800D3CCFC018091C201843051F48181DD
:1010C0008F708093E9008091E80080FF02C0CF011B
:1010D000D3CF0895FC018091C201843011F092E0D9
:1010E00016C081818F708093E900CB0164E070E0CD
:1010F00040E050E0CBDB982F882349F48091E80052
:1011000085FD05C08091E8008E778093E800892FE7
:101110000895CF93DF93EC011B8682E08C8389874F
:10112000CE01019661E03CDC882331F0CE010696C9
:1011300061E036DC811181E0DF91CF910895F89470
:02114000FFCFDF
:101142000182400000010140000001000A0A7D23E3
:101152004104F07E7F0406027D0423410104020162
:0A11620002040000010621F700005E
:00000001FF
